:100000000C9434000C943E000C943E000C943E0082
:100010000C943E000C943E000C943E000C943E0068
:100020000C943E000C943E000C943E000C943E0058
:100030000C943E000C943E000C943E000C943E0048
:100040000C943E000C943E000C943E000C943E0038
:100050000C943E000C943E000C943E000C943E0028
:100060000C943E000C943E0011241FBECFEFD4E050
:10007000DEBFCDBF0E9442000C9482000C940000B1
:1000800085B908958FEF84B940E63AED22EF96E600
:1000900086EB45B95FEF68E07DE35150604070400A
:1000A000E1F700C0000035B9EFEFF8E05DE3E150A3
:1000B000F0405040E1F700C0000025B96FEF78E054
:1000C000EDE361507040E040E1F700C0000095B9F9
:1000D000FFEF58E06DE3F15050406040E1F700C0A1
:1000E000000085B97FEFE8E0FDE37150E040F040AB
:1000F000E1F700C00000E3ECF9E03197F1F700C050
:080100000000C7CFF894FFCF07
:00000001FF
